:020000040800F2
:1000000000800120E5620008E11B0008E31B0008F6
:10001000E51B0008E71B0008E91B000800000000C2
:10002000000000000000000000000000EB1B0008C2
:10003000ED1B000800000000EF1B0008F11B00088A
:100040003563000835630008356300083563000830
:100050003563000835630008356300083563000820
:100060003563000835630008356300083563000810
:10007000356300083563000835630008F91B000884
:1000800035630008091C0008356300083563000863
:1000900035630008356300083563000835630008E0
:1000A00035630008356300083563000835630008D0
:1000B000191C00083563000835630008291C000876
:1000C000391C0008356300083563000835630008F3
:1000D00035630008356300083563000835630008A0
:1000E0003563000835630008356300083563000890
:1000F0003563000835630008356300083563000880
:100100003563000835630008491C000835630008A2
:10011000356300083563000835630008356300085F
:10012000356300083563000835630008591C000872
:10013000691C000835630008356300083563000852
:10014000356300083563000835630008356300082F
:10015000356300083563000835630008356300081F
:10016000356300083563000835630008356300080F
:10017000356300083563000835630008000000009F
:08018000356300083563000837
:1001900010B5054C237833B9044B13B10448AFF3C1
:1001A00000800123237010BD7800002000000000B3
:1001B000A86B000808B5034B1BB103490348AFF314
:1001C000008008BD000000007C000020A86B000833
:1001D00081F0004102E000BF83F0004330B54FEAF8
:1001E00041044FEA430594EA050F08BF90EA020F65
:1001F0001FBF54EA000C55EA020C7FEA645C7FEAF8
:10020000655C00F0E2804FEA5454D4EB5555B8BF1A
:100210006D420CDD2C4480EA020281EA030382EA8B
:10022000000083EA010180EA020281EA0303362D1D
:1002300088BF30BD11F0004F4FEA01314FF4801CF0
:100240004CEA113102D0404261EB410113F0004F02
:100250004FEA03334CEA133302D0524263EB4303B9
:1002600094EA050F00F0A780A4F10104D5F1200E57
:100270000DDB02FA0EFC22FA05F2801841F10001B2
:1002800003FA0EF2801843FA05F359410EE0A5F186
:1002900020050EF1200E012A03FA0EFC28BF4CF0B7
:1002A000020C43FA05F3C01851EBE37101F000456D
:1002B00007D54FF0000EDCF1000C7EEB00006EEB7A
:1002C0000101B1F5801F1BD3B1F5001F0CD3490804
:1002D0005FEA30004FEA3C0C04F101044FEA44525B
:1002E00012F5800F80F09A80BCF1004F08BF5FEAE2
:1002F000500C50F1000041EB045141EA050130BDC2
:100300005FEA4C0C404141EB010111F4801FA4F164
:100310000104E9D191F0000F04BF01460020B1FAB9
:1003200081F308BF2033A3F10B03B3F120020CDAF1
:100330000C3208DD02F1140CC2F10C0201FA0CF0CF
:1003400021FA02F10CE002F11402D8BFC2F1200C34
:1003500001FA02F120FA0CFCDCBF41EA0C019040EA
:10036000E41AA2BF01EB0451294330BD6FEA040433
:100370001F3C1CDA0C340EDC04F11404C4F120021E
:1003800020FA04F001FA02F340EA030021FA04F330
:1003900045EA030130BDC4F10C04C4F1200220FA87
:1003A00002F001FA04F340EA0300294630BD21FAC5
:1003B00004F0294630BD94F0000F83F4801306BF8B
:1003C00081F480110134013D4EE77FEA645C18BF7F
:1003D0007FEA655C29D094EA050F08BF90EA020F16
:1003E00005D054EA000C04BF1946104630BD91EA0E
:1003F000030F1EBF0021002030BD5FEA545C05D111
:100400004000494128BF41F0004130BD14F580044F
:100410003CBF01F5801130BD01F0004545F0FE41C3
:1004200041F470014FF0000030BD7FEA645C1ABFF8
:10043000194610467FEA655C1CBF0B46024650EA2F
:10044000013406BF52EA033591EA030F41F400215B
:1004500030BD00BF90F0000F04BF0021704730B5E1
:100460004FF4806404F132044FF000054FF00001B6
:1004700050E700BF90F0000F04BF0021704730B577
:100480004FF4806404F1320410F0004548BF40424C
:100490004FF000013EE700BF42004FEAE2014FEAA1
:1004A00031014FEA02701FBF12F07F4393F07F4F7C
:1004B00081F06051704732F07F4208BF704793F07F
:1004C0007F4F04BF41F40021704730B54FF4607492
:1004D00001F0004521F000411CE700BF50EA010295
:1004E00008BF704730B54FF000050AE050EA01023E
:1004F00008BF704730B511F0004502D5404261EBAE
:1005000041014FF4806404F132045FEA915C3FF4EE
:10051000D8AE4FF003025FEADC0C18BF03325FEA8B
:10052000DC0C18BF033202EBDC02C2F1200300FA3C
:1005300003FC20FA02F001FA03FE40EA0E0021FA61
:1005400002F11444BDE600BF70B54FF0FF0C4CF44F
:10055000E06C1CEA11541DBF1CEA135594EA0C0F01
:1005600095EA0C0F00F0DEF82C4481EA030621EA3C
:100570004C5123EA4C5350EA013518BF52EA033577
:1005800041F4801143F4801338D0A0FB02CE4FF029
:100590000005E1FB02E506F00042E0FB03E54FF059
:1005A0000006E1FB03569CF0000F18BF4EF0010E51
:1005B000A4F1FF04B6F5007F64F5407404D25FEA4D
:1005C0004E0E6D4146EB060642EAC62141EA555100
:1005D0004FEAC52040EA5E504FEACE2EB4F1FD0C42
:1005E00088BFBCF5E06F1ED8BEF1004F08BF5FEAC0
:1005F000500E50F1000041EB045170BD06F0004672
:1006000046EA010140EA020081EA0301B4EB5C041E
:10061000C2BFD4EB0C0541EA045170BD41F4801116
:100620004FF0000E013C00F3AB8014F1360FDEBF3B
:10063000002001F0004170BDC4F10004203C35DA17
:100640000C341BDC04F11404C4F1200500FA05F39A
:1006500020FA04F001FA05F240EA020001F000423B
:1006600021F0004110EBD37021FA04F642EB0601B1
:100670005EEA430E08BF20EAD37070BDC4F10C04DB
:10068000C4F1200500FA04F320FA05F001FA04F29F
:1006900040EA020001F0004110EBD37041F100018B
:1006A0005EEA430E08BF20EAD37070BDC4F1200596
:1006B00000FA05F24EEA020E20FA04F301FA05F2FE
:1006C00043EA020321FA04F001F0004121FA04F2A6
:1006D00020EA020000EBD3705EEA430E08BF20EA76
:1006E000D37070BD94F0000F0FD101F000464000B0
:1006F00041EB010111F4801F08BF013CF7D041EA32
:10070000060195F0000F18BF704703F00046520035
:1007100043EB030313F4801F08BF013DF7D043EA06
:100720000603704794EA0C0F0CEA135518BF95EABC
:100730000C0F0CD050EA410618BF52EA4306D1D143
:1007400081EA030101F000414FF0000070BD50EA62
:10075000410606BF1046194652EA430619D094EAEC
:100760000C0F02D150EA013613D195EA0C0F05D1D6
:1007700052EA03361CBF104619460AD181EA03012A
:1007800001F0004141F0FE4141F470014FF00000E2
:1007900070BD41F0FE4141F4780170BD70B54FF07D
:1007A000FF0C4CF4E06C1CEA11541DBF1CEA1355FD
:1007B00094EA0C0F95EA0C0F00F0A7F8A4EB0504DF
:1007C00081EA030E52EA03354FEA013100F08880D6
:1007D0004FEA03334FF0805545EA131343EA12639F
:1007E0004FEA022245EA111545EA10654FEA002654
:1007F0000EF000419D4208BF964244F1FD0404F50D
:10080000407402D25B084FEA3202B61A65EB030568
:100810005B084FEA32024FF480104FF4002CB6EB25
:10082000020E75EB030E22BFB61A754640EA0C00A5
:100830005B084FEA3202B6EB020E75EB030E22BFE5
:10084000B61A754640EA5C005B084FEA3202B6EB26
:10085000020E75EB030E22BFB61A754640EA9C00E5
:100860005B084FEA3202B6EB020E75EB030E22BFB5
:10087000B61A754640EADC0055EA060E18D04FEA73
:10088000051545EA16754FEA06164FEAC30343EA13
:1008900052734FEAC2025FEA1C1CC0D111F4801FE0
:1008A0000BD141EA00014FF000004FF0004CB6E7D9
:1008B00011F4801F04BF01430020B4F1FD0C88BF78
:1008C000BCF5E06F3FF6AFAEB5EB030C04BFB6EB83
:1008D000020C5FEA500C50F1000041EB045170BD76
:1008E0000EF0004E4EEA113114EB5C04C2BFD4EBA3
:1008F0000C0541EA045170BD41F480114FF0000E27
:10090000013C90E645EA060E8DE60CEA135594EAA2
:100910000C0F08BF95EA0C0F3FF43BAF94EA0C0FA5
:100920000AD150EA01347FF434AF95EA0C0F7FF41A
:1009300025AF104619462CE795EA0C0F06D152EA6E
:1009400003353FF4FDAE1046194622E750EA410652
:1009500018BF52EA43067FF4C5AE50EA41047FF463
:100960000DAF52EA43057FF4EBAE12E74A0011D215
:1009700012F5001211D20DD56FF47873B3EB6252F9
:100980000ED44FEAC12343F0004343EA505323FA05
:1009900002F070474FF00000704750EA013002D17A
:1009A0004FF0FF3070474FF00000704753B94AB91D
:1009B000002908BF00281CBF4FF0FF314FF0FF3067
:1009C00000F072B9ADF1080C6DE904CE00F006F844
:1009D000DDF804E0DDE9022304B070472DE9F047BB
:1009E000089E04468846002B4BD18A42154667D99B
:1009F000B2FA82F24AB1C2F1200701FA02F320FAF8
:100A000007F7954047EA030894404FEA154E230C38
:100A1000B8FBFEF71FFA85FC0EFB178843EA084374
:100A200007FB0CF1994209D9EB1807F1FF3080F070
:100A30001B81994240F21881023F2B445B1AA4B2F9
:100A4000B3FBFEF00EFB103344EA034400FB0CFC46
:100A5000A44509D92C1900F1FF3380F00781A44582
:100A600040F2048102382C4440EA0740A4EB0C0415
:100A700000271EB1D4400023C6E900433946BDE833
:100A8000F0878B4209D9002E00F0EB800027C6E9E1
:100A9000000138463946BDE8F087B3FA83F7002FE6
:100AA00047D18B4202D3824200F2FA80841A61EB72
:100AB000030301209846002EE0D0C6E90048DDE798
:100AC00002B9FFDEB2FA82F2002A40F08F80491BA1
:100AD0004FEA154E1FFA85F80127B1FBFEFC230CE7
:100AE0000EFB1C1143EA014308FB0CF1994207D9A4
:100AF000EB180CF1FF3002D2994200F2CD8084460F
:100B0000591AA3B2B1FBFEF00EFB101443EA0444E1
:100B100008FB00F8A04507D92C1900F1FF3302D2D9
:100B2000A04500F2B6801846A4EB080440EA0C4049
:100B30009FE7C7F1200CBB4022FA0CFE4EEA030EE1
:100B400001FA07F420FA0CF521FA0CF34FEA1E48DB
:100B50002543B3FBF8F92C0C08FB19331FFA8EFA66
:100B600044EA034309FB0AF49C4202FA07F200FA42
:100B700007F10BD91EEB030309F1FF3080F08780EA
:100B80009C4240F28480A9F1020973441B1BADB260
:100B9000B3FBF8F008FB103345EA034400FB0AFA04
:100BA000A24508D91EEB040400F1FF336BD2A24525
:100BB00069D90238744440EA0940A0FB0289A4EBD9
:100BC0000A044C45C2464B4654D351D0002E69D03E
:100BD000B1EB0A0564EB030404FA0CFCFD40FC4095
:100BE0004CEA0505C6E90054002747E7C2F1200397
:100BF00020FA03F7954001FA02F021FA03F34FEAD5
:100C0000154E3843010CB3FBFEF71FFA85F80EFBB7
:100C1000173341EA034107FB08F38B4204FA02F45D
:100C200007D9691807F1FF3C2FD28B422DD9023F1B
:100C30002944CB1A81B2B3FBFEF00EFB103341EA1C
:100C4000034100FB08F38B4207D9691800F1FF3C10
:100C500017D28B4215D902382944C91A40EA0747EE
:100C60003BE73746304609E70746E7E61846FBE626
:100C70004145ABD2B8EB020A69EB0E0201381346CC
:100C8000A4E76046E9E7184695E76746D1E781465D
:100C90007CE702382C4447E7ACF1020C2B442FE7E9
:100CA000384608E73746E9E6704700BF0000000015
:100CB00001F0FF01102A2BDB10F0070F08D010F80D
:100CC000013B013A8B422DD010F0070F42B3F6D111
:100CD000F0B441EA012141EA014122F007047FF02A
:100CE00000070023F0E80256083C85EA010586EA81
:100CF000010685FA47F5A3FA87F586FA47F6A5FABD
:100D000087F68EB9EED1F0BC01F0FF0102F00702C8
:100D100032B110F8013B013A83EA010313B1F8D173
:100D20000020704701387047002D06BF3546033854
:100D3000073815F0010F07D1013015F4807F02BF8D
:100D4000013015F4C03F0130F0BC0138704700BFDE
:100D500010B5064C00220649204603F0E9FE0022A9
:100D60000449204603F00DFF10BD00BF041400200D
:100D7000BC000020D00000202DE9F04389B000F035
:100D80005FFA00F06BFAFFF7E3FF00F017FA00F0EC
:100D900053F800F08DFA1F4B1A781F490A701F4B49
:100DA0001D68C5F307434B70C5F307278F70EDB27D
:100DB000CD701B480468C4F3074C81F804C0C4F329
:100DC000072E81F805E0E4B28C71164800884FEADE
:100DD000102881F80780C0B20872134E96F8009070
:100DE00081F80990114ECDF81C900690CDF8148032
:100DF0000494CDF80CE0CDF808C0019500970C499B
:100E0000304605F0CBFA642382B23146094805F03A
:100E100096F9BAE700000020D40000209C000020D2
:100E2000A40000205A01002048120020F4000020F5
:100E3000086C0008C014002030B583B00D4A0E4C79
:100E40002378137061780D4D4FF0FF330093012329
:100E5000284601F097FCC82000F09EFF0223084AB4
:100E60006178284601F00AFE012000F095FF03B0EA
:100E700030BD00BF58010020010000209412002066
:100E80005C01002008B520214FF0904001F047FAA6
:100E9000034A1178537843EA0123024A138008BDBC
:100EA0005C0100205A01002010B40368B3F1804FA8
:100EB00006D0BC4A934200F0BA805DF8044B7047FC
:100EC000037F012B0BD0022B0DD0B74B1B68002BDF
:100ED000F3D0B54B5B68002BEFD0002208E0B24A9C
:100EE00001211160EFE7B04B01225A60EDE70132BA
:100EF000AE4B53F82230002BF9D0931CAB4C54F876
:100F00002330511C54F821001B1A54F82220801A57
:100F10001C46834228BF04460A46002CEDD083427B
:100F200009D907EE900AF8EE677A9FEDA17A77EE7D
:100F3000877A012208E007EE903AF8EE677AF4E744
:100F400077EEA67A01320146B1F5FA7F18DA481C2D
:100F5000964C54F8203054F821105B1A07EE103AE2
:100F6000B8EE477A06EE902AB8EEE66AC7EE866AD1
:100F7000B4EEE67AF1EE10FAE2D5F0EE476ADFE77A
:100F800007EE102AB8EEC77AC7EE876A894B1A684F
:100F9000864B1B689A420DD39A4245D902200CE039
:100FA0000132844B53F82210804B9B689942F7D34F
:100FB000022022E00222F4E718467E4B9968431C87
:100FC0007A4A52F823209142F6D8022215E00132E3
:100FD000784B53F82230754951F820105B1A1BB238
:100FE000002BF4DB07EE903AF8EEE77AF4EEE67ABF
:100FF000F1EE10FA16D801320130B2F5FA7F02DABA
:10100000B0F5FA7FE4DB9FED6C7AC7EE267A664B8B
:10101000FCEEE77AC3ED027A00221A605A600122E0
:10102000DA604AE70130E8E700221046E5E7037F8F
:10103000012B0DD0022B0FD05B4B1B68002B3FF414
:101040003CAF594B5B68002B3FF437AF002208E000
:10105000554A01211160EDE7534B01225A60EBE73D
:101060000132524B53F82230002BF9D0931C4F4CD5
:1010700054F82330511C54F821001B1A54F8222034
:10108000801A1C46834228BF04460A46002CEDD035
:10109000834209D907EE900AF8EE677A9FED447A09
:1010A00077EE877A012208E007EE903AF8EE677A49
:1010B000F4E777EEA67A01320146B1F5FA7F18DA45
:1010C000481C3A4C54F8203054F821105B1A07EEB3
:1010D000103AB8EE477A06EE902AB8EEE66AC7EE06
:1010E000866AB4EEE67AF1EE10FAE2D5F0EE476ADF
:1010F000DFE707EE102AB8EEC77AC7EE876A2D4BF6
:101100001A682A4B1B689A420DD39A4237D902209B
:101110000CE00132274B53F82210244B9B68994274
:10112000F7D3022017E00222F4E71846214B996812
:10113000431C1E4A52F823209142F6D802220AE0AC
:1011400007EE903AF8EEE77AF4EEE67AF1EE10FA6E
:1011500013D801320130B2F5FA7F13DAB0F5FA7F15
:1011600010DA144B53F82230104951F820105B1A52
:101170001BB2002BE4DA0132F3E70130EBE7002287
:101180001046E8E79FED0C7AC7EE267A064BFCEE98
:10119000E77AC3ED047A00221A605A600122DA600D
:1011A0008BE600BF000C00409400002030020020BD
:1011B00000000000680A00208096984C38B51A4B51
:1011C000DB6833B9642000F0E7FD174BDB68B3B987
:1011D00038BD00244FF080435C62144D4FF4FA7325
:1011E000134A2146284604F09FFB4FF4FA73114A34
:1011F0000421284604F098FB0B4BDC60E2E7002456
:101200000D4B5C620D4D4FF4FA73094A2146284696
:1012100004F08AFB4FF4FA73064A0421284604F0CE
:1012200083FB014BDC60D3E79400002074140020A2
:1012300030020020680A0020000C00402813002023
:1012400008B5044B05225A630021034804F0B6FA9E
:1012500008BD00BF002C01402814002070B5104EBE
:10126000104C4FF4FA7332460021204604F05CFB28
:101270000D4D4FF4FA732A460421204604F054FB26
:101280000A4C4FF4FA7332460021204604F04CFB1E
:101290004FF4FA732A460421204604F045FB70BD42
:1012A0003002002074140020680A00202813002057
:1012B000F0B583B0164C00232370164F3978164DC5
:1012C0004FF0FF36009601232246284601F05AFAD5
:1012D0003978009602232246284601F011FB237834
:1012E0006078400940EAC3000C4B1880FFF7C2F851
:1012F00000224FF07F53FFF727F9FFF737FB084B2A
:1013000018704FF4967000F047FD03B0F0BD00BFB9
:101310003C1200200300002094120020381200200C
:101320004812002010B588B000240394049405945A
:1013300006940794174BDA6C42F00402DA64DA6C14
:1013400002F004020092009ADA6C42F00102DA64C0
:10135000DA6C02F001020192019ADA6C42F00202A8
:10136000DA64DB6C03F002030293029B2246202125
:101370004FF0904000F0CEFF20230393012304930D
:101380000594069403A94FF0904000F0DFFE08B0EA
:1013900010BD00BF0010024000B583B01A4B9A6C1C
:1013A00042F001029A649A6C02F001020092009AE3
:1013B0009A6C42F002029A649B6C03F00203019360
:1013C000019B002211460F2000F00CFD0F2000F0C1
:1013D0003DFD00221146112000F004FD112000F017
:1013E00035FD002211463B2000F0FCFC3B2000F0C4
:1013F0002DFD002211463C2000F0F4FC3C2000F0C2
:1014000025FD03B05DF804FB0010024072B6FEE754
:1014100008B50B480B4B03604FF4E13343600023E6
:101420008360C36003610C2242618361C361036214
:10143000436204F026FF00B908BDFFF7E7FF00BFD5
:10144000C01400200044004000B58DB00023089374
:1014500009930A930B9305930693079301930293C1
:101460000393049323484FF08042026043608360FB
:101470004FF0FF32C2600361836103F019FF60BB6C
:101480000CA94FF4805341F8103D1A4804F016F9A6
:1014900028BB184803F06AFF18BB00230593079385
:1014A00005A9144804F06EFBE8B90022019201235B
:1014B00002930392049201A90E4804F099F8A0B98E
:1014C00002230193029304220DEB0201094804F068
:1014D0008FF860B90DB05DF804FBFFF797FFFFF7D9
:1014E00095FFFFF793FFFFF791FFFFF78FFFFFF7E0
:1014F0008DFF00BF7414002010B59AB0002416941C
:101500001794189419941394149415940C940D949E
:101510000E940F941094119412942C22214601A839
:1015200004F034FF2D482E4B03604460846009238F
:10153000C36004614461846103F0BAFE002840D1B5
:101540001AA94FF4805341F8103D244804F0B6F82E
:10155000002838D1214803F0DAFE002835D10023D5
:1015600013931493159313A91C4804F00BFB002844
:101570002DD160230C9300220D920E920F921092A7
:10158000119212920CA9154803F066FF08BB0023C4
:10159000019302930393049305934FF40052069230
:1015A000079308934FF0007209920A930B9301A9D5
:1015B0000A4804F033FB70B9084800F0B3FA1AB0D7
:1015C00010BDFFF723FFFFF721FFFFF71FFFFFF716
:1015D0001DFFFFF71BFFFFF719FF00BF28140020B6
:1015E000002C014000B58DB00023089309930A93A5
:1015F0000B9305930693079301930293039304932C
:101600002348244A0260436083604FF0FF32C26087
:101610000361836103F04CFE68BB0CA94FF4805357
:1016200041F8103D1A4804F049F830BB184803F05F
:101630009DFE20BB00230593079305A9144804F0E1
:10164000A1FAF0B9002201920223029303920492BC
:1016500001A90F4803F0CCFFA8B90223019301238D
:10166000029304220DEB0201094803F0C1FF60B9A7
:101670000DB05DF804FBFFF7C9FEFFF7C7FEFFF7EB
:10168000C5FEFFF7C3FEFFF7C1FEFFF7BFFE00BFB9
:1016900028130020000C004008B51148114B0360CE
:1016A000114B4360002383600122C26003614361E8
:1016B0008361C361036201F007F850B90021084853
:1016C00001F0E2FF38B90021054802F00BF820B91B
:1016D00008BDFFF79BFEFFF799FEFFF797FE00BFDF
:1016E0009412002000540040EC9C901000B587B08C
:1016F00000230193029303930493059300931B48E3
:101700001B4A026043607F228260FF22C260036145
:1017100043618361C36103F0E7F800BB00238DF8E8
:1017200004308DF805308DF80630049305930122BE
:1017300001A90E4803F033F998B901228DF8002071
:101740008DF801208DF8022000238DF803306946C2
:10175000064803F08DF930B907B05DF804FBFFF7D8
:1017600055FEFFF753FEFFF751FE00BF04140020A3
:101770000028004000B5B9B04422002127A804F099
:1017800005FE002122912391249125912691882202
:10179000684604F0FBFD01F0D1FF234AD2F89030F7
:1017A00023F01803C2F890300623279301222992D0
:1017B0004FF480732A9310232B9302233193329397
:1017C00033920A223492072235923693379327A810
:1017D00002F0AEF800BB0F232293032323930023D0
:1017E000249325932693042122A802F0BDFBA8B9D7
:1017F0000E4B009300230F9314934FF480732193A7
:10180000684602F0E5FD58B94FF4007001F0A6FFFC
:1018100040B939B05DF804FBFFF7F8FDFFF7F6FDBE
:10182000FFF7F4FDFFF7F2FD001002404200020056
:1018300008B500F089FAFFF79DFFFFF773FDFFF78A
:10184000ABFDFFF7E5FDFFF7FFFDFFF755FEFFF7E7
:10185000C9FEFFF721FFFFF749FFFFF78DFAFEE70B
:1018600082B00A4B1A6E42F001021A661A6E02F03A
:1018700001020092009A9A6D42F080529A659B6D27
:1018800003F080530193019B02B0704700100240A7
:1018900010B588B000230393049305930693079330
:1018A00002681C4B9A4201D008B010BD1A4CE36C80
:1018B00043F00203E364E36C03F002030193019B32
:1018C0004FF44073039312230493012305930323DE
:1018D00006930423079303A9104800F037FCA36D77
:1018E00043F40013A365A36D03F400130293029B5A
:1018F000002211461F2000F075FA1F2000F0A6FA02
:1019000000221146202000F06DFA202000F09EFAFF
:10191000CAE700BF00540040001002400004004825
:101920000268064B9A4200D07047054AD2F89030C0
:1019300043F40043C2F89030F6E700BF00280040AF
:101940000010024010B58AB0002305930693079358
:10195000089309930368684A934208D00446B3F198
:10196000804F0FD0654A93426AD00AB010BD644BD5
:101970001A6E42F400621A661B6E03F40063009351
:10198000009BF2E703F504339A6D42F001029A6579
:101990009A6D02F001020192019ADA6C42F00102A2
:1019A000DA64DB6C03F001030293029B01230593CD
:1019B00002220692099305A94FF0904000F0C6FB61
:1019C0005048514B03600423436000238360C3608D
:1019D000802202614FF4007242614FF40062826122
:1019E000C361036200F06EFA20BB464B63629C62E7
:1019F0004648474B03600423436000238360C36071
:101A0000802202614FF4007242614FF400628261F1
:101A1000C361036200F056FA78B93C4BA3629C6242
:101A20002363002211461C2000F0DCF91C2000F08A
:101A30000DFA9AE7FFF7EAFCD7E7FFF7E7FCECE7D8
:101A40002F4B9A6D42F008029A659A6D02F00802D7
:101A50000392039ADA6C42F00102DA64DB6C03F061
:101A600001030493049B022305930693099305A99C
:101A70004FF0904000F06AFB2648274B0360052397
:101A8000436000238360C360802202614FF40072D0
:101A900042614FF400628261C361036200F012FA96
:101AA00018BB1C4B63629C621C481D4B03600523E2
:101AB000436000238360C360802202614FF40072A0
:101AC00042614FF400628261C361036200F0FAF97F
:101AD00070B9124BA3629C6200221146322000F0C2
:101AE00081F9322000F0B2F93FE7FFF78FFCD8E729
:101AF000FFF78CFCEDE700BF002C0140000C00401C
:101B0000001002404C12002058000240E012002059
:101B1000800002407413002058040240BC130020CF
:101B20004404024000B587B000230193029303935D
:101B30000493059302680F4B9A4202D007B05DF8F8
:101B400004FB03F56443DA6C42F00102DA64DB6CF7
:101B500003F001030093009B4FF480730193022371
:101B600002930123059301A94FF0904000F0EEFA93
:101B7000E4E700BF002C014000B589B000230393C7
:101B800004930593069307930268144B9A4202D07C
:101B900009B05DF804FB03F5E6339A6D42F40032B8
:101BA0009A659A6D02F400320192019ADA6C42F061
:101BB0000102DA64DB6C03F001030293029B0C2345
:101BC000039302230493032306930723079303A994
:101BD0004FF0904000F0BAFADAE700BF004400404E
:101BE000FEE7FEE7FEE7FEE7FEE770477047704757
:101BF00008B500F0BFF808BD08B5024800F041FA8A
:101C000008BD00BF4C12002008B5024800F039FAA8
:101C100008BD00BFE012002008B5024803F0E8F953
:101C200008BD00BF7414002008B5024800F072FF20
:101C300008BD00BF9412002008B5024801F0E2FC84
:101C400008BD00BF9412002008B5024803F0D0F987
:101C500008BD00BF2813002008B5024800F011FAA3
:101C600008BD00BFBC13002008B5024800F009FA07
:101C700008BD00BF7413002008B503460B4A126864
:101C800042B10A4A106803446A46934206D8074A9A
:101C9000136008BD054A06491160F2E704F04CFBE9
:101CA0000C2303604FF0FF30F3E700BFAC000020CF
:101CB000481500200F49D1F8883043F47003C1F86B
:101CC00088300D4B1A6842F001021A6000209860BB
:101CD0001A6822F0A85222F410221A604FF480529F
:101CE000DA601A6822F480221A6098614FF000636B
:101CF0008B60704700ED00E000100240104B1B7835
:101D00000BB90120704710B504464FF47A70B0FB50
:101D1000F3F30C4A1068B0FBF3F000F0A5F868B9D3
:101D20000F2C01D901200AE0002221464FF0FF309C
:101D300000F058F8024B5C60002000E0012010BD6C
:101D4000080000200400002010B5094A136843F47D
:101D500080731360032000F033F80020FFF7CEFFFC
:101D600010B10124204610BD0446FFF779FDF9E7C4
:101D700000200240034B1B78034A11680B44136098
:101D8000704700BF0800002040150020014B186874
:101D9000704700BF4015002038B50446FFF7F6FF36
:101DA0000546B4F1FF3F02D0044B1B781C44FFF7FB
:101DB000EDFF401BA042FAD338BD00BF0800002051
:101DC000074AD36823F4E0631B041B0C000200F4F1
:101DD000E060184340F0BF6040F40030D0607047CE
:101DE00000ED00E030B4174BDB68C3F30223C3F10E
:101DF0000704042C28BF04241D1D062D18D9033BFD
:101E00004FF0FF3505FA04F421EA0401994005FA80
:101E100003F322EA0303194300280BDB0901C9B2CB
:101E200000F1604000F5614080F8001330BC70475D
:101E30000023E5E700F00F000901C9B2024B195475
:101E4000F4E700BF00ED00E014ED00E0002807DB40
:101E500000F01F02400901239340024A42F820305B
:101E6000704700BF00E100E00138B0F1807F0AD286
:101E7000064B5860064AF02182F823100020986033
:101E800007221A6070470120704700BF10E000E091
:101E900000ED00E070B4446C04F01C05066C0124F5
:101EA000AC407460046863608368102B05D00368DD
:101EB00099600368DA6070BC704703689A600368D1
:101EC000D960F8E7002869D010B403460168344AA5
:101ED000914245D8334A0A443349A1FB0212120900
:101EE00092004264314A0264022283F82520186875
:101EF000016821F4FF4121F070019A68DC682243F7
:101F00001C6922435C6922439C692243DC692243A9
:101F10001C6A22430A4302609A68B2F5804F15D0CA
:101F2000196C224A914226D0214A1168586C00F05F
:101F30001C040F20A04021EA0001116011685868BC
:101F40005C6C04F01C04A040014311600020D863C5
:101F5000012283F8252083F824005DF8044B7047A4
:101F6000144A0A441049A1FB021212099200426469
:101F7000114A0264B8E7A8321168586C00F01C04DA
:101F80000F20A04021EA00011160116858685C6CC4
:101F900004F01C04A04001431160D7E70120704702
:101FA00007040240F8FFFDBFCDCCCCCC00000240BE
:101FB000A8040240F8FBFDBF0004024038B590F8C9
:101FC0002440012C33D0012480F8244090F825408F
:101FD000E4B2012C04D0002380F82430022038BD64
:101FE0000446022084F825000020E0632568286864
:101FF00020F0010028602046FFF74CFF236B5BB107
:102000002268136843F00E0313602268136843F0DC
:10201000010313600020E2E72268136823F0040341
:1020200013602268136843F00A031360EDE702208F
:10203000D5E708B590F82530DBB2022B03D0042396
:10204000C363012008BD0268136823F00E03136008
:102050000268136823F001031360436C03F01C0350
:10206000016C012202FA03F34B6080F82520002363
:1020700080F82430836B13B198470020E2E70020FA
:10208000E0E738B5036C196804682568436C03F011
:102090001C0304229A400A4215D015F0040F12D0F6
:1020A000236813F0200F03D1236823F00403236077
:1020B000436C03F01C02016C042393404B60036BE0
:1020C00003B1984738BD02229A400A421CD015F04D
:1020D000020F19D0236813F0200F06D1236823F0D4
:1020E0000A032360012380F82530436C03F01C02AF
:1020F000016C022393404B60002380F82430C36AB4
:10210000002BDFD09847DDE7082202FA03F30B42E9
:10211000D8D015F0080FD5D0236823F00E03236024
:10212000436C03F01C03016C012202FA03F34B60C1
:10213000C26380F82520002380F82430436B002BF5
:10214000C0D09847BEE790F825007047F0B583B03F
:1021500000233FE0C66A26EA0406C5F3C0049C409B
:102160003443C4625FE0062400E00024B4403C43F2
:102170000235644E46F82540634C2568D44304EA92
:1021800005064F6817F4803F01D042EA05065E4D10
:102190002E606D6804EA05064F6817F4003F01D011
:1021A00042EA0506584D6E60AD6804EA05064F68C0
:1021B00017F4801F01D042EA0506534DAE60ED686A
:1021C0002C404E6816F4001F01D042EA05044E4A26
:1021D000D46001330A6832FA03F400F091800124DC
:1021E0009C402240F5D04D686E1E012E03D9112D62
:1021F00001D0122D12D186685F000325BD4026EA6A
:102200000506CD68BD4035438560466826EA04066C
:102210004D68C5F300159D40354345604D6805F098
:102220000306032E96D0C5685F000324BC40E44338
:1022300025408E68BE402E43C6604D68022D01D0F9
:10224000122D13D1DE08083650F826E003F00705FA
:102250004FEA850C0F2505FA0CF52EEA050E0D69DF
:1022600005FA0CF545EA0E0540F8265005682C40A5
:102270004D6805F00305BD402C4304604C6814F024
:10228000805FA6D0214C256E45F001052566246EA1
:1022900004F001040194019C9D08AE1C194C54F8F3
:1022A000267003F00304A6000F24B44027EA0407B5
:1022B000B0F1904F3FF459AF154CA04216D004F541
:1022C0008064A04214D004F58064A04212D004F5CA
:1022D0008064A04210D004F58064A0420ED004F5C2
:1022E0008064A0423FF43FAF07243FE701243DE76D
:1022F00002243BE7032439E7042437E7052435E7C4
:1023000003B0F0BD00000140000401400010024095
:10231000000400480AB981627047816170474369CF
:1023200001EA030221EA030141EA024181617047A7
:1023300003689A6912F0020F01D000229A620368C2
:102340009A6912F0010F03D19A6942F001029A6171
:10235000704770B4039E05686868740D04F4806467
:1023600044F07F7444F4583444F47F7444F003041C
:1023700020EA0400C1F3090141EA02411943314353
:102380000143696070BC7047436B1A4A934215D091
:10239000194A934212D011F4004F29D1002311F0B1
:1023A000010F01D043F0F20311F0020F01D043F00E
:1023B000F40320290CD143F0200309E011F4004F6D
:1023C0000BD1002310290AD020290BD040290CD092
:1023D00001680A6813430B607047B823F2E743F0C3
:1023E0009003F1E743F06003F0E743F04003EFE7C9
:1023F000B823D4E7C5340008A533000811F0010F55
:1024000009D090F8413003F02803282B01D0F223A3
:1024100002E0422300E0002311F0020F29D010B4A3
:1024200043F0440490F8412002F02802282A12D0F8
:1024300043F0F40311F4004F0FD1102910D02029DC
:1024400011D0402912D001680A6822EA03030B6008
:102450005DF8044B70472346ECE743F0B803ECE724
:1024600043F09003EBE743F02003EAE743F0400337
:10247000E9E711F4004F0BD110290CD020290DD021
:1024800040290ED001680A6822EA03030B607047F6
:1024900043F0B803F0E743F09003EFE743F0200385
:1024A000EEE743F04003EDE770B504460D461646EF
:1024B00003689B6913F0100F1CD023689A6912F00F
:1024C000200F19D1B5F1FF3FF7D0FFF75FFC801B5C
:1024D000A84201D8002DF0D1636C43F0200363645F
:1024E000202384F84130002384F8423084F84030BF
:1024F000012020E000201EE01022DA612368202560
:10250000DD612046FFF714FF2268536823F0FF7354
:1025100023F48B3323F4FF7323F001035360636CC4
:1025200043F00403636484F84150002384F842308C
:1025300084F84030012070BD70B504460D46164643
:1025400023689B6913F0020F1DD1324629462046AD
:10255000FFF7AAFFC8B9B5F1FF3FF1D0FFF716FCAE
:10256000801BA84201D8002DEAD1636C43F0200300
:102570006364202384F84130002384F8423084F8D7
:102580004030012000E0002070BD0120FCE7F8B5DC
:1025900005460F4616461C462B689B6937EA03031F
:1025A0000CBF01230023B34218D1B4F1FF3FF3D095
:1025B000FFF7ECFB069BC01AA04201D8002CEBD120
:1025C0006B6C43F020036B64202385F841300023BB
:1025D00085F8423085F84030012000E00020F8BD49
:1025E00070B505460C4616462B689B6913F0200F04
:1025F0001AD1324621462846FFF756FFB0B9FFF7F9
:10260000C5FB801BA04201D8002CEDD16B6C43F0C0
:1026100020036B64202385F84130002385F8423085
:1026200085F84030012070BD0020FCE70120FAE76A
:1026300070B504460D46164623689B6913F0040FD7
:102640003ED1324629462046FFF72EFF014600289C
:1026500038D123689A6912F0200F13D1FFF796FB47
:10266000801BA84201D8002DE6D1636C43F0200303
:102670006364202384F84130002384F84030012132
:10268000084670BD9A6912F0040F02D0228D002A0C
:10269000F6D12022DA6121684B6823F0FF7323F41E
:1026A0008B3323F4FF7323F001034B600023636437
:1026B00084F8412084F8423084F840300121DFE77B
:1026C0000021DDE70121DBE7002859D010B50446E1
:1026D00090F84130002B43D0242384F84130226805
:1026E000136823F0010313606368226823F07063AA
:1026F00013612268936823F400439360E368012B1D
:1027000033D0A368226843F404439360E368022B48
:1027100031D02268536843F0007343F400435360A0
:102720002268D36823F40043D360236962691343AA
:10273000A169226843EA0123D360E369216A226820
:102740000B4313602268136843F0010313600020F9
:102750006064202384F84130206384F8420010BD77
:1027600080F84030FFF794F8B6E7A368226843F496
:1027700000439360CAE723684FF400625A60C8E7D9
:10278000012070472DE9F04383B090F84150EDB23D
:10279000202D40F0A48090F84040012C00F0A4804F
:1027A000984617460E4604464FF0010980F84090BF
:1027B000FFF7ECFA0546009019234A464FF4004112
:1027C0002046FFF7E4FE002840F09080212384F8A3
:1027D0004130102384F84230002363646762A4F818
:1027E0002A806363638D9BB2FF2B0AD9FF22228567
:1027F000424B00934FF0807331462046FFF7A9FD0E
:1028000018E0628D92B222853C4B00934FF000732A
:10281000D2B231462046FFF79CFD0BE0628D92B2AA
:102820002285002300934FF00073D2B23146204638
:10283000FFF78FFD638D9BB2002B33D02A460A9998
:102840002046FFF779FE002852D1626A2368127889
:102850009A62636A01336362638D013B9BB2638555
:10286000238D013B9BB22385628D92B2002AE1D079
:10287000002BDFD100950A9B002280212046FFF724
:1028800086FE002836D1638D9BB2FF2BC6D9FF226E
:102890002285002300934FF0807331462046FFF7D6
:1028A00058FDC7E72A460A992046FFF799FE0346D6
:1028B00010BB22682021D1612068426822F0FF729B
:1028C00022F48B3222F4FF7222F00102426084F87B
:1028D0004110002284F8422084F8402000E00223C6
:1028E000184603B0BDE8F0830223F9E70123F7E7B8
:1028F0000123F5E70123F3E70123F1E7002000803E
:102900002DE9F04383B090F84150EDB2202D40F016
:10291000A48090F84040012C00F0A480984617460F
:102920000E4604464FF0010980F84090FFF72EFA5A
:102930000546009019234A464FF400412046FFF710
:1029400026FE002840F09080222384F84130102396
:1029500084F84230002363646762A4F82A806363CA
:10296000638D9BB2FF2B0AD9FF222285424B009335
:102970004FF0807331462046FFF7EBFC18E0628D84
:1029800092B222853C4B00934FF00073D2B2314695
:102990002046FFF7DEFC0BE0628D92B22285002319
:1029A00000934FF00073D2B231462046FFF7D1FCBE
:1029B000638D9BB2002B33D02A460A992046FFF73D
:1029C00037FE002852D123685A6A636A1A70636A14
:1029D00001336362238D013B9BB22385628D013AF3
:1029E00092B26285628D92B2002AE1D0002BDFD1D3
:1029F00000950A9B002280212046FFF7C8FD002891
:102A000036D1638D9BB2FF2BC6D9FF2222850023CE
:102A100000934FF0807331462046FFF79AFCC7E7DA
:102A20002A460A992046FFF7DBFD034610BB2268C1
:102A30002021D1612068426822F0FF7222F48B329B
:102A400022F4FF7222F00102426084F84110002259
:102A500084F8422084F8402000E00223184603B0A6
:102A6000BDE8F0830223F9E70123F7E70123F5E747
:102A70000123F3E70123F1E70024008030B583B0A0
:102A800090F84140E4B2202C37D10468A46914F4D2
:102A9000004F35D190F84040012C33D0012480F80C
:102AA0004040222480F84140102480F84240002415
:102AB000446442624385144BC362144B4363438DA9
:102AC0009BB2FF2B14D9FF2303854FF0807304467C
:102AD00090F828200E4800902046FFF73AFC002589
:102AE00084F8405002212046FFF74EFC284605E0BE
:102AF000438D03854FF00073E9E7022003B030BD3A
:102B00000220FBE70220F9E70000FFFF293200085E
:102B10000024008008B5036899691A68436B03B103
:102B2000984708BD704738B50446002380F8423006
:102B300090F84130DBB2212B0FD0202380F84130B8
:102B400012230363002545630221FFF757FC84F835
:102B500040502046FEF796F938BD202380F84130DA
:102B600011230363002545630121FFF747FC84F827
:102B700040502046FFF7D6FFEEE77047704710B58C
:102B8000044603681A68002180F8421012F4804F4E
:102B90000ED01A6822F480421A6094F84130DBB2F9
:102BA000292B0DD094F84130DBB22A2B18D010BD60
:102BB00012F4004FF1D01A6822F400421A60ECE7D8
:102BC000282384F841302123236301212046FFF785
:102BD00015FC002384F840302046FFF7CEFFE6E7DF
:102BE000282384F841302223236302212046FFF763
:102BF00005FC002384F840302046FFF7BFFFD6E7EE
:102C00007047F8B590F8413003F02803282B06D020
:102C100003680822DA61002380F84030F8BD0446DA
:102C200003689E69C6F300469A69120C02F0FE051D
:102C30009A68C2F30902DF6807F0FE07C16802293B
:102C400022D185EAD21515F0060F10D1816C013121
:102C50008164816C0229E1D1002181640820D8615E
:102C600084F8401031462046FFF7CAFFD6E74FF4FC
:102C70000041FFF7C3FB002384F840303A46314659
:102C80002046FFF7BDFFC9E74FF40041FFF7B6FB51
:102C9000002384F840302A4631462046FFF7B0FF33
:102CA000BCE7704710B50446174BC36200230363AB
:102CB000202280F8412080F84230436311F0040F55
:102CC00012D003685A6A436A1A70436A0133436236
:102CD000038D4BB1013B0385438D013B9BB2438583
:102CE000436C43F00403436448F203012046FFF7BA
:102CF00085FB23681022DA61002384F840302046E7
:102D0000FFF7CFFF10BD00BF0000FFFF7047704707
:102D10007047704708B590F84130DBB2602B06D0A1
:102D20000023036380F84030FFF7F2FF08BD202343
:102D300080F841300023036380F84030FFF7E9FF5B
:102D4000F4E7000010B5044690F84130002280F806
:102D500042203B48E0626285626C11436164283B1B
:102D6000DBB2022B19D803212046FFF747FB2823AB
:102D700084F84130334B6363236BA26B1AB1112B80
:102D80001BD0212B19D0E26B1AB1122B36D0222B7B
:102D900034D02046FFF7BEFF10BD48F203012046A5
:102DA000FFF72CFB94F84130DBB2602B02D02023DC
:102DB00084F8413000236363DEE723681A6812F465
:102DC000804F03D01A6822F480421A60A06BFFF78C
:102DD000BAF901280ED0A36B1B4A9A63002384F82A
:102DE0004030A06BFFF725F90028D5D0A06B836B8E
:102DF0009847D1E72046FFF78DFFCDE723681A6893
:102E000012F4004F03D01A6822F400421A60E06BFB
:102E1000FFF799F901280ED0E36B0B4A9A63002360
:102E200084F84030E06BFFF704F90028B4D0E06B81
:102E3000836B9847B0E72046FFF76CFFACE700BF15
:102E40000000FFFFB12F00086F36000870B5044680
:102E50000D460268166890F84130DBB22021D1613E
:102E6000212B0DD0292B0BD0222B01D02A2B0ED1B8
:102E700048F202012046FFF7C1FA2223236306E04D
:102E800048F201012046FFF7B9FA212323632268A3
:102E9000536843F4004353602268536823F0FF7380
:102EA00023F48B3323F4FF7323F001035360204694
:102EB000FFF73EFA16F4804F3FD02268136823F4E0
:102EC00080431360A36B1BB11B685B689BB2638577
:102ED00015F0040F10D025F0040523685A6A636AC0
:102EE0001A70636A01336362238D2BB1013B238522
:102EF000638D013B9BB26385638D9BB21BB1636C99
:102F000043F004036364002384F842306363636C1A
:102F10001BBBE36A13F5803F2DD194F84130DBB23F
:102F2000222B38D0202384F841300023236384F8F7
:102F300040302046FFF721FE2CE016F4004FC7D0AA
:102F40002268136823F400431360E36B002BBFD0A7
:102F50001B685B689BB26385BAE7616C2046FFF72C
:102F6000F1FE94F84130DBB2282B13D129462046DC
:102F7000FFF798FE0EE02046FFF701FE0B4BE362E1
:102F8000202384F841300023236384F84030204616
:102F9000FFF787FE70BD202384F8413000232363B0
:102FA00084F840302046FFF7E9FDF3E70000FFFF1B
:102FB000F8B5C76A90F84030012B00F09C801646A7
:102FC0000D460446012380F8403011F0200F02D056
:102FD00012F0200F19D115F0100F3ED016F0100F7F
:102FE0003BD0638D9BB243BB94F84130DBB2282BBE
:102FF0000ED094F84130DBB2292B11D02368102277
:10300000DA61002084F84000F8BDFFF71FFFE2E717
:10301000B7F1007FEDD129462046FFF743FEF0E7E8
:1030200017F5803FEAD023681022DA612046FFF7C7
:103030007FF92046FFF7A3FDE3E723681022DA615A
:10304000636C43F00403636417B1B7F1807FD8D198
:10305000616C2046FFF776FED3E715F0040F1ED013
:1030600016F0040F1BD0638D9BB26BB123685A6AB4
:10307000636A1A70636A01336362238D013B23859F
:10308000638D013B9BB26385638D9BB2002BB8D1EE
:1030900017F5803FB5D02046FFF771FDB1E715F079
:1030A000080F02D016F0080F17D115F0020FA8D0A4
:1030B00016F0020FA5D0638D9BB29BB1626A2368A4
:1030C00012789A62636A01336362638D013B9BB23B
:1030D0006385238D013B238593E729462046FFF72F
:1030E00090FD8EE7B7F1807F01D0002F89D1204677
:1030F000FFF745FD85E7022086E730B583B004463B
:103100000D4603682022DA6190F84130DBB2212BB2
:103110004AD090F84130DBB2222B4BD02268536862
:1031200023F0FF7323F48B3323F4FF7323F00103A5
:10313000536000236363A3F58033E36215F0100F3F
:1031400006D023681022DA61636C43F004036364E1
:1031500094F84130DBB2602B32D02046FFF7E8F81C
:10316000626C94F84130DBB2602B32D08ABB94F8A9
:103170004130DBB2212B32D094F84130DBB2222B2C
:103180002BD1202384F841300023236394F842306C
:10319000DBB2402B3FD0002384F8423084F840302B
:1031A0002046FDF76FFE18E00121FFF727F91123F4
:1031B0002363B3E70221FFF721F912232363ADE76D
:1031C00015F0040FC9D023685B6ADBB20193019B41
:1031D000C3E7616C2046FFF7B5FD03B030BD202387
:1031E00084F841300023236394F84230DBB2402B53
:1031F00008D0002384F8423084F840302046FFF79E
:1032000091FCEAE7002384F8423084F840302046FD
:10321000FFF77CFDE1E7002384F8423084F840307A
:103220002046FFF774FDD8E790F84030012B00F0FE
:10323000B78070B582B004460D461646012380F86B
:10324000403011F0100F02D012F0100F21D115F004
:10325000040F28D016F0040F25D025F004052368AC
:103260005A6A636A1A70636A01336362238D013B91
:103270002385638D013B9BB2638515F0200F03D03E
:1032800016F0200F40F08780002084F8400002B044
:1032900070BD03681022DA61436C43F00403436499
:1032A000FFF746F8E9E715F0020F11D016F0020F0C
:1032B0000ED0626A236812789A62636A013363628D
:1032C000238D013B2385638D013B9BB26385D4E74E
:1032D00015F0800F3FD016F0400F3CD0638D9BB2AD
:1032E0005BB3238D4BBB23685968C1F30901638D20
:1032F0009BB2FF2B0ED8628D92B22285E36A13F542
:10330000803F11D0E36A00200090D2B22046FFF740
:1033100020F8B2E7FF222285002300934FF080734C
:103320002046FFF716F8A8E7002300934FF000733C
:10333000D2B22046FFF70DF89FE723685B6813F0D1
:10334000007F03D12046FFF7EEFB96E740212046A1
:10335000FFF7F8FC91E715F0400F8ED016F0400F04
:103360008BD0638D9BB28BB923685A6812F0007FB3
:1033700083D1E26A12F5803F04D15A6842F4804258
:103380005A607AE72046FFF7CEFB76E740212046D9
:10339000FFF7D8FC71E729462046FFF7AEFE73E73A
:1033A00002207047F8B5C76A90F84030012B00F052
:1033B000878016460C460546012380F8403011F000
:1033C000200F02D012F0200F15D114F0100F68D08A
:1033D00016F0100F65D0C6F3803313B916F4004F02
:1033E0005BD0EA6B52B116F4004F09D012685268F4
:1033F0003AB3002105E0FFF729FDE6E7002100E0F0
:103400000021AA6B1AB113B113685B68DBB1D1B9A3
:103410002B681022DA616B6C43F004036B6495F83F
:103420004130DBB217B1B7F1807F40D1212B2DD0D5
:10343000292B2BD0222B01D02A2B29D122232B63FD
:1034400026E00121DDE795F84130DBB2282B08D0DA
:1034500095F84130DBB2292B0BD02B681022DA61B2
:1034600025E0B7F1007FF3D121462846FFF71AFC8B
:103470001DE017F5803FF0D02B681022DA61284656
:10348000FEF756FF2846FFF77AFB10E021232B6357
:10349000696C2846FFF756FC09E02B681022DA61B8
:1034A00005E014F0080F02D016F0080F03D1002039
:1034B00085F84000F8BD21462846FFF7A2FBF6E755
:1034C0000220F7E790F84030012B00F0998010B50A
:1034D00082B00446012380F8403011F0100F02D072
:1034E00012F0100F31D111F0800F5FD012F0400FA9
:1034F0005CD02268136823F040031360638D9BB295
:10350000002B45D023685968C1F30901638D9BB234
:10351000FF2B2CD9FF2323854FF0807394F82820AC
:10352000002000902046FEF714FF638D228D9B1A29
:103530009BB2638594F84130DBB2222B22D0226803
:10354000136843F4804313600CE003681022DA61CF
:10355000436C43F0040343642021FEF715FF20462B
:10356000FEF7E6FE002084F8400002B010BD638D37
:103570002385E36A13F5803F01D0E36ACEE74FF07D
:103580000073CBE72268136843F400431360E9E754
:1035900023685B6813F0007F03D12046FFF7C3FA6E
:1035A000E0E740212046FFF7CDFBDBE711F0400FBD
:1035B0001CD012F0400F19D0638D9BB28BB92368D9
:1035C0005A6812F0007FCDD1E26A12F5803F04D133
:1035D0005A6842F480425A60C4E72046FFF7A3FAD3
:1035E000C0E740212046FFF7ADFBBBE711F0200FFD
:1035F000B8D012F0200FB5D02046FFF77EFDB1E71E
:103600000220704710B502689369116813F4807F37
:1036100009D011F0800F06D0446C44F001044464DA
:103620004FF48074D46113F4806F0AD011F0800FCE
:1036300007D0426C42F00802426402684FF4806492
:10364000D46113F4007F0AD011F0800F07D0436CCF
:1036500043F00203436403684FF40072DA61416C83
:1036600011F00B0F00D110BDFFF76CFBFBE708B5A5
:10367000806A836B0BB100229A63C36B0BB100228B
:103680009A63FFF747FB08BD90F84130DBB2202B6F
:1036900024D190F84030012B22D0012380F8403013
:1036A000242380F841300268136823F0010313607B
:1036B0000268136823F48053136002681368194387
:1036C00011600268136843F001031360202380F83F
:1036D0004130002380F84030184670470220704780
:1036E0000220704790F84130DBB2202B22D190F8B5
:1036F0004030012B20D0012380F84030242380F873
:1037000041300268136823F00103136002681368F4
:1037100023F4706343EA012111600268136843F0E7
:1037200001031360202380F84130002380F84030EB
:10373000184670470220704702207047024A1368FB
:1037400043F480731360704700700040024B1868A8
:1037500000F4C060704700BF00700040B0F5007F0B
:103760000FD01F4B1B6803F4C063B3F5806F34D0D8
:103770001B4A136823F4C06343F480631360002082
:103780007047174B1B6803F4C063B3F5007F22D06A
:10379000134A136823F4C06343F400731360114B9E
:1037A0001A68322303FB02F30F4AA2FB03239B0C8C
:1037B000013300E0013B0A4A526912F4806F01D0E4
:1037C000002BF7D1064B5B6913F4806F01D1002009
:1037D000704703207047002070470020704700BFEB
:1037E000007000400400002083DE1B4330B583B02E
:1037F0000546204B9B6D13F0805F0BD0FFF7A6FFB3
:10380000B0F5007F17D0802D1FD82DD0702D2DD072
:1038100000211BE0174CA36D43F08053A365A36DFB
:1038200003F080530193019BFFF790FFA36D23F0FA
:103830008053A365E4E7802D03D9A02D03D902218D
:1038400004E0002102E0012100E003210A4A13689C
:1038500023F007030B431360136803F007038B4245
:1038600006D0012003B030BD0221EFE70121EDE7D2
:103870000020F7E70010024000200240284A936829
:10388000D26802F0030213F00C030AD00C2B06D00E
:10389000042B1FD0082B20D00020024610E0012A64
:1038A000F6D11F4A126812F0080F0CD11C4AD2F848
:1038B0009420C2F303221B4951F8222043B1002077
:1038C0000C2B0DD07047164A1268C2F30312F2E7B0
:1038D0001046F5E714480022F2E714480022EFE70B
:1038E0000F4BDB6803F00303022B15D0032B15D01D
:1038F0000B4BD868C0F302100130D968C1F3062120
:1039000002FB01F2B2FBF0F2D868C0F34160013073
:103910004000B2FBF0F0D5E7034AE9E7034AE7E7E6
:1039200000100240C06B00080024F40000127A006E
:10393000002800F00083F0B583B00446AF4B9D68CB
:1039400005F00C05DE6806F00306036813F0100F9F
:103950005BD0E5B10C2D18D0A369002B00F0BC8022
:10396000A64A136843F001031360FEF70FFA0746F7
:10397000A24B1B6813F0020F40F09B80FEF706FA83
:10398000C01B0228F4D90323E1E2012EE4D19B4BB2
:103990001B6813F0020F03D0A369002B00F0CE8246
:1039A000206A964B1B6813F0080F5CD0934B1B6882
:1039B00003F0F00398425DD8904B1A6842F0080279
:1039C0001A601A6822F0F002216A0A431A605A68E3
:1039D00022F47F42E16942EA01225A60002D61D05F
:1039E000FFF74CFF854B9B68C3F30313844AD35CFA
:1039F00003F01F03D840834B1860834B1868FEF711
:103A00007DF90346002840F0A282236813F0010FDD
:103A100000F08180082D75D00C2D71D06368B3F54E
:103A2000803F00F09780B3F5A02F00F09980734B92
:103A30001A6822F480321A601A6822F480221A600E
:103A40006368002B00F09980FEF7A0F907466B4BE6
:103A50001B6813F4003F5ED1FEF798F9C01B642881
:103A6000F5D9032373E2654BD3F894301B0903F0B7
:103A7000F0039FE7FFF7BAFE002840F061825F4B3A
:103A80001A6842F008021A601A6822F0F002216AED
:103A90000A431A605A6822F47F42E16942EA01222D
:103AA0005A609DE7206AFFF7A1FE002898D0012305
:103AB0004DE2524B1A6842F008021A601A6822F06E
:103AC000F002216A0A431A605A6822F47F42E169CF
:103AD00042EA01225A6098E7484A136823F001033A
:103AE0001360FEF753F90746444B1B6813F0020FAF
:103AF0008BD0FEF74BF9C01B0228F5D9032326E231
:103B0000032E8BD13D4B1B6813F4003F03D0636839
:103B1000002B00F01782236813F0020F4FD0042D02
:103B20003CD00C2D38D0E368002B78D0334A136892
:103B300043F480731360FEF729F906462F4B1B6888
:103B400013F4806F62D1FEF721F9801B0228F5D9AA
:103B50000323FCE1294A136843F4803313606FE7C1
:103B600003F18043A3F53C331A6842F480221A60C3
:103B70001A6842F480321A6062E7FEF707F90746D6
:103B80001E4B1B6813F4003FC5D0FEF7FFF8C01BA7
:103B90006428F5D90323DAE1022EC4D1174B1B6840
:103BA00013F4806F03D0E368002B00F0CD81134A3B
:103BB000536823F0F853216943EA01635360236893
:103BC00013F0080F56D06369002B3CD00B4AD2F893
:103BD000943043F00103C2F89430FEF7D7F806465C
:103BE000064BD3F8943013F0020F43D1FEF7CEF812
:103BF000801B0228F4D90323A9E100BF0010024072
:103C0000F06B0008040000200C000020B84A536844
:103C100023F0F853216943EA01635360CFE7B44AC4
:103C2000136823F480731360FEF7B0F80646B04BB8
:103C30001B6813F4806FC2D0FEF7A8F8801B02281F
:103C4000F5D9032383E1AA4AD2F8943023F0010383
:103C5000C2F89430FEF79AF80646A54BD3F8943094
:103C600013F0020F06D0FEF791F8801B0228F4D95A
:103C700003236CE1236813F0040F7AD09C4B9B6DF7
:103C800013F0805F0BD19A4B9A6D42F080529A6587
:103C90009B6D03F080530193019B012600E00026F9
:103CA000944B1B6813F4807F26D0A368012B37D078
:103CB000052B3DD08E4BD3F8902022F00102C3F8A3
:103CC0009020D3F8902022F00402C3F89020A3683B
:103CD000002B3BD0FEF75AF80746854BD3F89030BF
:103CE00013F0020F44D1FEF751F8C01B41F28833A4
:103CF0009842F2D903232AE17E4A136843F4807381
:103D00001360FEF743F807467A4B1B6813F4807F75
:103D1000CBD1FEF73BF8C01B0228F5D9032316E1EF
:103D2000734AD2F8903043F00103C2F89030CEE7E6
:103D30006F4BD3F8902042F00402C3F89020D3F8E0
:103D4000902042F00102C3F89020C0E7FEF71EF871
:103D50000746674BD3F8903013F0020F08D0FEF7F8
:103D600015F8C01B41F288339842F2D90323EEE0E4
:103D70006EBBA36A002B00F0E980022B2DD00C2D26
:103D800000F0EE805A4B1A6822F080721A601B68AD
:103D900013F0205F04D1564AD36823F00303D360A5
:103DA000534AD36823F0887323F48033D360FDF73C
:103DB000EDFF04464E4B1B6813F0007F00F0B98006
:103DC000FDF7E4FF001B0228F4D90323BFE0484AB3
:103DD000936D23F080539365CBE7454BDB6803F08D
:103DE0000301E26A91420FD00C2D00F0B380404BEA
:103DF0001B6813F0806F40F0AF803D4B1B6813F0E1
:103E0000805F2DD00123A2E003F07002216B013905
:103E1000B2EB011FE8D103F4FE42616BB2EB012F5C
:103E2000E2D103F40031A26B073A18BF012291429C
:103E3000DAD103F4C001E26B5208013AB1EB425F00
:103E4000D2D103F0C063226C5208013AB3EB426F47
:103E5000CAD1274B1B6813F0007F51D0002376E0B6
:103E6000234A136823F080731360FDF78FFF054624
:103E70001F4B1B6813F0007F06D0FDF787FF401B28
:103E80000228F5D9032362E0194AD3681A49194078
:103E9000E36A206B013843EA0013606B43EA0023B6
:103EA000E06B4008013843EA4053206C4008013879
:103EB00043EA4063A06B000943EA40430B43D360ED
:103EC000136843F080731360D36843F08073D3604A
:103ED000FDF75CFF0446064B1B6813F0007F0DD115
:103EE000FDF754FF001B0228F5D903232FE000BF84
:103EF00000100240007000408C809DF9002326E0F5
:103F0000184B1A6842F080721A60DA6842F08072C8
:103F1000DA60FDF73BFF044604E0FDF737FF001BC6
:103F200002281BD80F4B1B6813F0007FF5D000232D
:103F30000DE000230BE0012318467047012306E043
:103F4000012304E0012302E0012300E000231846DE
:103F500003B0F0BD0123FAE70123F8E70323F6E7F6
:103F60000123F4E700100240002800F09B8070B5A8
:103F700004464E4B1B6803F007038B420CD24B4A9E
:103F8000136823F007030B431360136803F0070360
:103F90008B4201D0012070BD0D46236813F0010F44
:103FA00039D06368032B09D0022B26D063BB404A6B
:103FB000126812F0020F06D10120ECE73C4A1268A9
:103FC00012F0007F70D03A498A6822F0030213434E
:103FD0008B60FDF7DBFE0646354B9B6803F00C0358
:103FE0006268B3EB820F16D0FDF7D0FE801B41F262
:103FF00088339842F0D90320CDE72D4A126812F495
:10400000003FE0D10120C6E7294A126812F4806F10
:10401000D9D10120BFE7236813F0020F06D0244A4C
:10402000936823F0F003A1680B4393601F4B1B6858
:1040300003F00703AB420CD91C4A136823F00703B3
:104040002B431360136803F00703AB4201D0012038
:10405000A1E7236813F0040F06D0154A936823F4F0
:10406000E063E1680B439360236813F0080F07D007
:104070000F4A936823F46053216943EAC1039360B4
:10408000FFF7FCFB0A4B9B68C3F30313094AD35C9D
:1040900003F01F03D840084B1860084B1868FDF761
:1040A0002DFE78E701207047012074E700200240D0
:1040B00000100240F06B0008040000200C000020FB
:1040C000014B1868704700BF0400002008B5FFF7D7
:1040D000F7FF054B9B68C3F30223044AD35C03F04C
:1040E0001F03D84008BD00BF00100240006C00084C
:1040F00008B5FFF7E5FF054B9B68C3F3C223044AED
:10410000D35C03F01F03D84008BD00BF001002407D
:10411000006C0008F8B55A4BDB6813F0030F18D099
:10412000574BDB6803F003030268934202D001257A
:104130002846F8BD002A00F0A080514BDB68C3F38D
:10414000021301334268934201D00125F0E70025B4
:104150001AE00368022B59D0032B5ED0012B01D04B
:1041600001250FE0464A126812F0020F61D0444D5B
:10417000EA6822F073024468013C43EA04131343E3
:10418000EB600025002DD3D10F4604463C4A13684E
:1041900023F080631360FDF7F9FD0646384B1B687A
:1041A00013F0006F05D0FDF7F1FD801B0228F5D953
:1041B0000325002DBCD1002F3DD131490B6923F4DB
:1041C0001F3323F44073A068E2681209520442EAE4
:1041D000002213430B612A4A136843F08063136083
:1041E000FDF7D4FD0646264B1B6813F0006F05D182
:1041F000FDF7CCFD801B0228F5D90325002D97D1B2
:104200001F4A1369A1690B43136191E71C4A1268A5
:1042100012F4806FABD10125B4E7194A126812F489
:10422000003FA4D1164A126812F4802F9FD10125B5
:10423000A8E70125A6E7012F0FD01148026922F057
:10424000C06222F4FE42A16863695B08013B5B0621
:1042500043EA012313430361BDE70948026922F4DD
:10426000C00222F4FE42A16823695B08013B5B05A2
:1042700043EA012313430361ADE7012558E700BF7B
:1042800000100240F8B5514BDB6813F0030F18D053
:104290004E4BDB6803F003030268934202D0012512
:1042A0002846F8BD002A00F08E80484BDB68C3F337
:1042B000021301334268934201D00125F0E7002543
:1042C0001AE00368022B59D0032B5ED0012B01D0DA
:1042D00001250FE03D4A126812F0020F61D03B4DFC
:1042E000EA6822F073024468013C43EA0413134372
:1042F000EB600025002DD3D10F460446334A1368E6
:1043000023F080531360FDF741FD06462F4B1B68D9
:1043100013F0005F05D0FDF739FD801B0228F5D9A9
:104320000325002DBCD1002F3DD128494B6923F432
:104330001F3323F44073A068E2681209520442EA72
:10434000002213434B61214A136843F080531360EA
:10435000FDF71CFD06461D4B1B6813F0005F05D1E1
:10436000FDF714FD801B0228F5D90325002D97D1F8
:10437000164A536961690B43536191E7134A126806
:1043800012F4806FABD10125B4E7104A126812F421
:10439000003FA4D10D4A126812F4802F9FD101254D
:1043A000A8E70125A6E70948426922F0C06222F485
:1043B000FE42A16823695B08013B5B0643EA0123D7
:1043C00013434361BFE701256AE700BF00100240C5
:1043D0002DE9F04182B00446036813F4006F2FD03A
:1043E000436EB3F5800F25D008D9B3F5000F10D078
:1043F000B3F5400F40F09980002610E0002B40F00C
:10440000948000210430FFF785FE06463EB1374612
:1044100018E05E4AD36843F48033D36000265B4AD9
:10442000D2F8883023F44003616E0B43C2F8883021
:10443000002707E000212030FFF724FF0646E5E7CC
:1044400000273E46236813F4805F15D0A36EB3F1B6
:10445000807F7AD06CD9B3F1007F70D0B3F1407F08
:104460007AD1002E7BD1494AD2F8883023F04073AC
:10447000A16E0B43C2F88830236813F4003F00F0AC
:104480008E80424B9B6D13F0805F6AD13F4B9A6DDB
:1044900042F080529A659B6D03F080530193019B1B
:1044A0004FF001083A4A136843F480731360FDF734
:1044B0006DFC0546364B1B6813F4807F05D1FDF774
:1044C00065FC401B0228F5D90326002E62D12F4B34
:1044D000D3F8903013F4407316D0D4F884209A4265
:1044E00012D02A4AD2F8903023F44073D2F89010B8
:1044F00041F48031C2F89010D2F8901021F480314C
:10450000C2F89010C2F8903013F0010F2CD1002E99
:1045100040F043811D4AD2F8903023F44073D4F820
:1045200084100B43C2F8903035E001273E4689E7FE
:1045300093B90021201DFFF7EDFD064691E7134AD0
:10454000D36843F48033D3608BE7002104F120006B
:10455000FFF798FE064684E701273E468CE737467C
:104560008AE74FF000089DE7FDF710FC0546074B72
:10457000D3F8903013F0020FC9D1FDF707FC401BB0
:1045800041F288339842F2D90326C0E70010024076
:10459000007000403746B8F1000F40F000812368FA
:1045A00013F0010F08D09D4AD2F8883023F003039E
:1045B000A16B0B43C2F88830236813F0020F08D0B8
:1045C000964AD2F8883023F00C03E16B0B43C2F813
:1045D0008830236813F0040F08D0904AD2F888304E
:1045E00023F03003216C0B43C2F88830236813F0AA
:1045F000080F08D0894AD2F8883023F0C003616CD4
:104600000B43C2F88830236813F0100F08D0834A98
:10461000D2F8883023F44073A16C0B43C2F8883081
:10462000236813F0200F08D07C4AD2F8883023F496
:104630004063E16C0B43C2F88830236813F4007FB9
:1046400008D0764AD2F8883023F44023E16D0B433A
:10465000C2F88830236813F4806F08D06F4AD2F80C
:10466000883023F44013216E0B43C2F8883023684E
:1046700013F0400F08D0694AD2F8883023F4405331
:10468000216D0B43C2F88830236813F0800F08D0E7
:10469000624AD2F8883023F44043616D0B43C2F87C
:1046A0008830236813F4807F08D05C4AD2F88830C1
:1046B00023F44033A16D0B43C2F88830236813F410
:1046C000005F0FD0554AD2F8883023F04063E16E86
:1046D0000B43C2F88830E36EB3F1006F65D0B3F1DD
:1046E000806F67D0236813F4002F0FD04B4AD2F8A5
:1046F000883023F04063216F0B43C2F88830236F6A
:10470000B3F1006F5ED0B3F1806F60D0236813F413
:10471000802F0FD0414AD2F8883023F04063616F78
:104720000B43C2F88830636FB3F1006F57D0B3F119
:10473000806F59D0236813F4804F0FD0374AD2F8D6
:10474000883023F04053A16F0B43C2F88830A36F29
:10475000B3F1805F50D0B3F1005F55D0236813F4FC
:10476000004F08D02D4AD2F8883023F08043E16F03
:104770000B43C2F88830236813F4803F09D0274ADE
:10478000D2F8883023F00043D4F880100B43C2F8ED
:104790008830384602B0BDE8F0813746FBE61F4A54
:1047A000936D23F080539365F9E6D36843F4801347
:1047B000D36097E70121201DFFF7ACFC002891D0C2
:1047C00007468FE7D36843F48013D3609EE7012147
:1047D000201DFFF79FFC002898D0074696E7D36876
:1047E00043F48013D360A5E70121201DFFF792FC5D
:1047F00000289FD007469DE70221201DFFF78AFC75
:104800000028ABD00746A9E7022104F12000FFF7FA
:1048100039FD0028A2D00746A0E700BF00100240E3
:1048200038B504460268D36823F0A003D360FDF7CF
:10483000ADFA05462368DB6813F0200F07D1FDF7BA
:10484000A5FA401BB0F57A7FF4D9032000E00020E0
:1048500038BD70B50368DA6812F0400F02D0002549
:10486000284670BD04464FF0FF32DA60FDF78EFA3D
:10487000064600252368DB6813F0400FF0D1032DB6
:10488000EED0FDF783FA801BB0F57A7FF2D90325CD
:1048900084F82150EEE7000010B50446114BDA68A9
:1048A00022F08002DA609B6813F0200F07D1FFF737
:1048B000B7FF0346A0B1032384F8213010E0094A72
:1048C000936823F020039360FFF7AAFF034610B11B
:1048D000032384F8213003498A6842F020028A6069
:1048E000184610BD0028004038B500284AD00446BC
:1048F00090F821307BB1022384F821302368CA224A
:104900005A62236853225A622046FFF7A2FF0346E9
:1049100030B1184638BD80F82030FDF701F8EAE7DD
:104920002268936823F4E00323F040039360216836
:104930008A68636820690343A069034313438B605B
:104940002368E2681A6122681369A16843EA014397
:1049500013612046FFF7A0FF03460028D9D1216844
:10496000CA6C22F00302CA642068C26CE1696569FE
:1049700029430A43C2642268FF215162012284F85C
:104980002120C6E70123C4E7002302E001330A38EF
:10499000C0B20928FAD81B01DBB21843704790F85F
:1049A0002030012B61D070B516460D460446012318
:1049B00080F82030022380F821300368CA225A622E
:1049C000036853225A62FFF744FF034600282ED1A2
:1049D000002E38D123689B6813F0400F01D10023CB
:1049E000EB702878FFF7D0FF06046878FFF7CCFF5C
:1049F00046EA0026A878FFF7C7FF3043EB7840EA85
:104A00008350236800F07F3020F0FE401860226859
:104A1000936823F48023936021688B68EA6828698F
:104A2000024313438B602046FFF736FF034622689C
:104A3000FF21516213B9012284F82120002284F859
:104A40002020184670BD23689B6813F0400F01D1E9
:104A50000023EB702B786878000240EA0340AB78C3
:104A60001843EB7840EA8350CBE70223184670479F
:104A700090F82030012B4FD070B5012380F8203002
:104A8000022380F821303AB94B7813F0100F03D08D
:104A900003F0EF030A334B700E46044632BBC8786E
:104AA000FFF772FF05047078FFF76EFF45EA0025F7
:104AB000B078FFF769FF0543307845EA4035236851
:104AC000CA225A62236853225A622046FFF7C1FE67
:104AD0000346B0B12268FF21516213B9012284F864
:104AE0002120002284F82020184670BDC8784D7817
:104AF0002D0245EA004588780543087845EA4035A7
:104B0000DDE7236825F07F4525F0C0055D60204680
:104B1000FFF7C2FE0346DDE702231846704703098C
:104B200003EB83035A0000F00F001044C0B270473B
:104B300070B503689B6A4B6003681B69C3F30E037F
:104B40008B6003681B6803F07F3323F0FE43C3F3DD
:104B500005400870C3F306264E7003F07F058D7084
:104B60009B0DCB705AB90C46FFF7D9FF2070304629
:104B7000FFF7D5FF60702846FFF7D1FFA070002037
:104B800070BD70B503685B6823F07F4323F0C003FA
:104B9000180CC870C3F304264E7003F03F058D70E7
:104BA000C3F342330B705AB90C46FFF7B8FFE070FD
:104BB0003046FFF7B4FF60702846FFF7B0FFA070E3
:104BC000002070BD30B4036A23F001030362036A5E
:104BD0004468826922F4803222F073020D682A430D
:104BE00023F002038D682B431C4DA8420FD005F51E
:104BF0000065A8420BD005F54065A84207D005F531
:104C00008065A84203D005F58065A84205D123F050
:104C10000803CD682B4323F00403104DA8420FD0A6
:104C200005F50065A8420BD005F54065A84207D000
:104C300005F58065A84203D005F58065A84205D139
:104C400024F440754C692C438D692C434460826187
:104C50004A684263036230BC704700BF002C0140C9
:104C600030B4036A23F480730362036A4468C26940
:104C700022F4803222F073020D682A4323F4007379
:104C80008D6843EA0523184DA84203D005F5006559
:104C9000A84206D123F40063CD6843EA052323F438
:104CA0008063114DA8420FD005F50065A8420BD0D6
:104CB00005F54065A84207D005F58065A84203D0F8
:104CC00005F58065A84207D124F440544D6944EAB3
:104CD00005148D6944EA05144460C2614A68C263E0
:104CE000036230BC704700BF002C014030B4036A3F
:104CF00023F480530362036A4468C26922F080721D
:104D000022F4E6420D6842EA052223F400538D683E
:104D100043EA05330F4DA8420FD005F50065A842C0
:104D20000BD005F54065A84207D005F58065A8427F
:104D300003D005F58065A84204D124F480444D6970
:104D400044EA85144460C2614A680264036230BC6C
:104D5000704700BF002C014030B4036A23F4803355
:104D60000362036A4468426D22F4803222F07002CA
:104D70000D682A4323F400338D6843EA05430F4D41
:104D8000A8420FD005F50065A8420BD005F5406597
:104D9000A84207D005F58065A84203D005F58065D7
:104DA000A84204D124F480344D6944EA05244460C7
:104DB00042654A688265036230BC7047002C01403E
:104DC00030B4036A23F480130362036A4468426DBB
:104DD00022F0807222F4E0420D6842EA052223F4B8
:104DE00000138D6843EA05530F4DA8420FD005F517
:104DF0000065A8420BD005F54065A84207D005F52F
:104E00008065A84203D005F58065A84204D124F44A
:104E100080244D6944EA8524446042654A68C2653D
:104E2000036230BC704700BF002C014010B4036A1D
:104E3000046A24F001040462846924F0F00444EA62
:104E4000021223F00A030B43826103625DF8044BF4
:104E5000704730B4046A24F0100404628469056A5F
:104E600024F4407444EA022222F470421B039BB2F1
:104E70001A4325F0A005090101F0A0012943826130
:104E8000016230BC704710B4036A23F01003036260
:104E90008469036A24F4704444EA023223F0A003D4
:104EA00043EA0113826103625DF8044B704730B43A
:104EB000046A24F480740462C469056A24F003045B
:104EC000224322F0F0021B01DBB21A4325F42065D5
:104ED000090201F420612943C261016230BC7047BC
:104EE00030B4046A24F480540462C469056A24F46A
:104EF000407444EA022222F470421B039BB21A431C
:104F000025F42045090301F420412943C2610162CF
:104F100030BC7047836823F07003194341F00701E8
:104F200081607047704770477047704710B5846A5A
:104F3000636A83420ED0A36A834216D0E36A834237
:104F40001ED0236B834226D02046FBF7ADFF002303
:104F5000237710BD01232377C369002BF4D10123EC
:104F600084F83E3084F84430EEE702232377C369A7
:104F7000002BE9D1012384F83F3084F84530E3E782
:104F800004232377C369002BDED1012384F840304A
:104F900084F84630D8E708232377C369002BD3D1A0
:104FA000012384F8413084F84730CDE7704710B5CD
:104FB000846A636A83420BD0A36A834210D0E36A97
:104FC000834210D0236B834204D10823237701E06E
:104FD000012323772046FFF7E9FF0023237710BD45
:104FE00002232377F6E704232377F3E7704770471C
:104FF00010B5044603681A6912F0020F11D0DA687E
:1050000012F0020F0DD06FF002021A610123037734
:1050100003689B6913F0030F79D0FBF745FF00236A
:10502000237723681A6912F0040F12D0DA6812F09D
:10503000040F0ED06FF004021A6102232377236855
:105040009B6913F4407F68D02046FBF72DFF0023B7
:10505000237723681A6912F0080F12D0DA6812F069
:10506000080F0ED06FF008021A610423237723681B
:10507000DB6913F0030F57D02046FBF715FF002321
:10508000237723681A6912F0100F12D0DA6812F031
:10509000100F0ED06FF010021A61082323772368D7
:1050A000DB6913F4407F46D02046FBF7FDFE00236A
:1050B000237723681A6912F0010F03D0DA6812F01F
:1050C000010F3FD123681A6912F0800F03D0DA680C
:1050D00012F0800F3DD123681A6912F4807F03D04B
:1050E000DA6812F0800F3BD123681A6912F0400F82
:1050F00003D0DA6812F0400F39D123681A6912F030
:10510000200F03D0DA6812F0200F37D110BDFFF75F
:105110000CFF2046FFF76AFF81E72046FFF705FFF7
:105120002046FFF763FF92E72046FFF7FEFE20468A
:10513000FFF75CFFA3E72046FFF7F7FE2046FFF7E7
:1051400055FFB4E76FF001021A612046FFF7ECFE4D
:10515000B8E76FF080021A61204600F0A8FDBAE7B8
:105160006FF480721A61204600F0A2FDBCE76FF078
:1051700040021A612046FFF73AFFBEE76FF02002B7
:105180001A61204600F092FDC0E7704710B5846AAE
:10519000636A834211D0A36A834213D0E36A8342D5
:1051A00016D0236B834219D0012384F83D3020466A
:1051B000FFF7EBFF0023237710BD0123237784F84B
:1051C0003E30F4E702232377012384F83F30EEE7F3
:1051D00004232377012384F84030E8E7082323776A
:1051E000012384F84130E2E70368304A904212D04C
:1051F000B0F1804F0FD0A2F5943290420BD002F55F
:105200008062904207D002F58062904203D002F59E
:105210009432904203D123F070034A681343234A27
:1052200090421ED0B0F1804F1BD0A2F59432904234
:1052300017D002F58062904213D002F5806290424E
:105240000FD002F5943290420BD002F540629042AA
:1052500007D002F58062904203D002F5806290424E
:1052600003D123F44073CA68134323F080034A69CF
:10527000134303608B68C3620B6883620B4B9842D5
:105280000FD003F5006398420BD003F540639842BA
:1052900007D003F58063984203D003F580639842FA
:1052A00001D10B690363012343617047002C014066
:1052B00058B310B5044690F83D300BB3022384F880
:1052C0003D30211D2068FFF78FFF012384F848300F
:1052D00084F83E3084F83F3084F8403084F8413020
:1052E00084F8423084F8433084F8443084F8453000
:1052F00084F8463084F8473084F83D30002010BDF3
:1053000080F83C30FCF71EFBD8E70120704758B30B
:1053100010B5044690F83D300BB3022384F83D30BD
:10532000211D2068FFF760FF012384F8483084F8CE
:105330003E3084F83F3084F8403084F8413084F8BF
:10534000423084F8433084F8443084F8453084F89F
:10535000463084F8473084F83D30002010BD80F896
:105360003C30FFF7DFFDD8E70120704758B310B598
:10537000044690F83D300BB3022384F83D30211DE4
:105380002068FFF731FF012384F8483084F83E306D
:1053900084F83F3084F8403084F8413084F842305B
:1053A00084F8433084F8443084F8453084F846303B
:1053B00084F8473084F83D30002010BD80F83C3040
:1053C000FFF7B1FDD8E701207047000030B4036A51
:1053D00023F010030362036A4468826922F080723A
:1053E00022F4E6420D6842EA052223F020038D688C
:1053F00043EA0513174DA84203D005F50065A842FE
:1054000006D123F08003CD6843EA051323F040035F
:10541000104DA8420FD005F50065A8420BD005F548
:105420004065A84207D005F58065A84203D005F580
:105430008065A84207D124F440644D6944EA85049C
:105440008D6944EA8504446082614A68826303622C
:1054500030BC7047002C014038B590F83C30012B2F
:1054600000F08C800D460446012380F83C30142A5D
:105470001ED8DFE802F00B1D1D1D211D1D1D351D51
:105480001D1D481D1D1D5C1D1D1D6F000068FFF7C3
:1054900099FB2268936943F008039361226893693A
:1054A00023F0040393612268936929690B43936194
:1054B000002084F83C0038BD0068FFF787FF2268B1
:1054C000936943F4006393612268936923F48063D2
:1054D000936122689369296943EA01239361E7E7AD
:1054E0000068FFF7BDFB2268D36943F00803D3616E
:1054F0002268D36923F00403D3612268D369296940
:105500000B43D361D4E70068FFF7F0FB2268D3694F
:1055100043F40063D3612268D36923F48063D361C9
:105520002268D369296943EA0123D361C0E700688F
:10553000FFF712FC2268536D43F00803536522689D
:10554000536D23F0040353652268536D29690B439F
:105550005365ADE70068FFF733FC2268536D43F4F1
:10556000006353652268536D23F48063536522689A
:10557000536D296943EA0123536599E702209AE7AD
:1055800070B4046A24F0010404628469056A174E49
:10559000B04219D0B0F1804F16D0A6F59436B04283
:1055A00012D006F58066B0420ED006F58066B04295
:1055B0000AD006F59436B04206D006F54066B042F1
:1055C00002D044F0010202E024F00304224322F05E
:1055D000F0021B01DBB2134325F00A0201F00A01BD
:1055E00011438361016270BC704700BF002C014011
:1055F00038B590F83C30012B52D00D4604460123BB
:1056000080F83C30C2B1042A27D0082A37D0CB68B2
:105610004A6809680068FFF763FC2268D36923F4CD
:105620004063D3612268D369A96843EA0123D36147
:10563000002084F83C0038BDCB684A6809680068DF
:10564000FFF79EFF2268936923F00C0393612268A1
:105650009369A9680B439361EAE7CB684A680968D4
:105660000068FFF7F6FB2268936923F440639361B7
:1056700022689369A96843EA01239361D8E7CB685C
:105680004A6809680068FFF712FC2268D36923F0B2
:105690000C03D3612268D369A9680B43D361C7E7C0
:1056A0000220C8E710B4846824F47F4442EA03234C
:1056B0000B43234383605DF8044B704790F83C3004
:1056C000012B64D010B50446012380F83C3002233E
:1056D00080F83D30026890682E4B034093600B6861
:1056E000402B4AD013D9602B3DD01ED9702B28D027
:1056F000B3F5005F30D1CB684A6889682068FFF74E
:10570000D1FF2268936843F48043936024E0102B18
:1057100006D004D9202B03D0302B01D01CE0DBB9FC
:1057200019462068FFF7F6FB16E0502B14D1CA6823
:1057300049682068FFF77AFB50212068FFF7EAFBF1
:105740000AE0CB684A6889682068FFF7ABFF2268E7
:10575000936843F077039360012384F83D30002081
:1057600084F83C0010BDCA6849682068FFF78BFBCD
:1057700060212068FFF7CEFBEEE7CA684968206821
:10578000FFF754FB40212068FFF7C4FBE4E7022049
:10579000704700BF8800FEFF10B401F01F01012315
:1057A00003FA01F4036A23EA04030362036A8A40EA
:1057B000134303625DF8044B704700000A4600295A
:1057C0004ED190F83E30DBB213F1FF3318BF012306
:1057D000002B40F09F8010B5002A71D1022380F881
:1057E0003E301146044601220068FFF7D5FF2368CA
:1057F0004B4A93420FD002F5006293420BD002F560
:105800004062934207D002F58062934203D002F5D2
:105810008062934203D15A6C42F400425A64236876
:105820003F4A934268D0B3F1804F65D0A2F59432DD
:10583000934261D002F5806293425DD002F58062AE
:10584000934259D002F59432934255D002F540620A
:10585000934251D01A6842F001021A60002058E0C9
:1058600004290DD0082913D00C2919D010291FD0D4
:1058700090F84330DBB213F1FF3318BF0123A7E7E1
:1058800090F83F30DBB213F1FF3318BF01239FE7DD
:1058900090F84030DBB213F1FF3318BF012397E7D4
:1058A00090F84130DBB213F1FF3318BF01238FE7CB
:1058B00090F84230DBB213F1FF3318BF012387E7C2
:1058C000042A09D0082A0BD00C2A0DD0102A0FD098
:1058D000022380F8433084E7022380F83F3080E7DA
:1058E000022380F840307CE7022380F8413078E7DB
:1058F000022380F8423074E799680A4A0A40062A6F
:105900000AD0B2F5803F09D01A6842F001021A604D
:10591000002010BD012070470020FAE70020F8E7C2
:10592000002C01400700010038B50C4681B990F801
:105930003E10C9B244BB90F84450EDB2022900F0C9
:105940000681022D00F0058101292DD0012038BDEE
:10595000042909D008290BD00C290DD010290FD00B
:1059600090F84310C9B2E5E790F83F10C9B2E1E7FB
:1059700090F84010C9B2DDE790F84110C9B2D9E7FC
:1059800090F84210C9B2D5E7042C05D0082C07D0F6
:1059900090F84750EDB2D1E790F84550EDB2CDE721
:1059A00090F84650EDB2C9E7012D01D00120CEE7B5
:1059B0009AB1B4B9022180F83E1074BB022180F87C
:1059C000441005460C2C4DD8DFE804F0374C4C4C05
:1059D000724C4C4C884C4C4C9E00002BE9D0012062
:1059E000B5E7042C09D0082C0BD00C2C0DD0102CB2
:1059F0000FD0022180F84310DFE7022180F83F102A
:105A0000DBE7022180F84010D7E7022180F841103F
:105A1000D3E7022180F84210CFE7042C05D0082CF0
:105A200007D0022180F84710CBE7022180F845100B
:105A3000C7E7022180F84610C3E7416A4C48C862B4
:105A4000696A4C480863696A4B484863296834317D
:105A5000686AFCF7B3FA00287DD12A68D36843F45A
:105A60000073D360012221462868FFF795FE2B685A
:105A7000424A93425DD0B3F1804F5AD0A2F594329E
:105A8000934256D002F58062934252D002F5806272
:105A900093424ED002F5943293424AD002F54062CE
:105AA000934246D01A6842F001021A6000204EE785
:105AB000816A2F48C862A96A2E480863A96A2E48DD
:105AC000486329683831A86AFCF778FA002844D17D
:105AD0002A68D36843F48063D360C3E7C16A24486B
